:1000000009C016C015C014C013C012C02CC010C047
:100010000FC00EC011241FBECFE9CDBF20E0A0E667
:10002000B0E001C01D92A236B207E1F7CED0B4C154
:10003000E7CFB89AC09889E08A95F1F700C0089593
:10004000B898C09A89E08A95F1F700C00895C298DF
:1000500089E08A95F1F700C00895C29A89E08A95EF
:10006000F1F700C008951F920F920FB60F9211245E
:100070008F93809160008F5F853018F480936000CB
:1000800005C01092600081E0809361008F910F9015
:100090000FBE0F901F901895E0DFCBDFD8DFD0CFD9
:1000A000D6DFC7DFDADFCCCF0F931F93CF93DF9379
:1000B000082FC8E0D0E010E8812F802311F0C0DFC6
:1000C00001C0B7DFCADFC3DF16952197A9F7B8DFF4
:1000D000C4DFC6B3C095C170BADF8C2FDF91CF915A
:1000E0001F910F9108951F93CF93DF93182FD8E09E
:1000F000C0E0CC0FB2DFB099C160A9DFD150C9F721
:10010000111197DFAADFA3DF9BDF8C2FDF91CF9147
:100110001F910895CF93DF93D82FC62FBDDF86EEB2
:10012000C3DF8D2FC1DF8C2FBFDFC82FB9DF8FEB6F
:100130009DE50197F1F700C000008C2FDF91CF9172
:100140000895CF93C82FA8DF86EEAEDF8C2FACDFEB
:10015000A3DF87EEA9DF80E0C6DFC82FA1DF8FE530
:1001600099E00197F1F700C000008C2FCF9108951E
:10017000CF93C82FCFDF8C2FCF91E3CF0F93DC012C
:10018000FB018C9181110AC0442389F090819F5F0B
:100190009083291760F481E08C9308C0411107C057
:1001A00090819F5F9083091710F41C9210820F9129
:1001B0000895B49902C08BE408958EE10895B4992E
:1001C00002C08EE108958FE00895CF93DF93CDB7FD
:1001D000DD27C450CDBF1C821B821A82198214BE37
:1001E000A8959CE088E10FB6F894A89581BD0FBE54
:1001F00091BDA89585E188BB8EE087BB12BE8EE5D8
:1002000086BF1092610082E08FBD85E083BF89B711
:10021000846089BF789480E094DF813319F0C398BB
:10022000C198FFCF60E08FE775DF67E986E072DF96
:100230008FE599E00197F1F700C0000067E186E0E3
:1002400069DF6AE589E094DF65E68DE091DF6FEFB5
:100250008EE08EDF64E089E18BDF64E08BE488DF91
:100260008EE56FDF843051F468E08EE581DF8DE547
:1002700068DF803119F469E18DE57ADF60E089E0BB
:1002800077DFA895809161008823D9F310926100EF
:1002900080E057DF813319F0C398C198FFCF82E027
:1002A00050DF87FF10C084E04CDFE82EF12C82E1A4
:1002B00048DF90E0982F88278C0100271F7093FF5C
:1002C00006C0106F04C000E010E0E12CF12C0E29F4
:1002D0001F291195019511098C81811116C08B81FF
:1002E000811127C066DF90E0919581959109EE24F8
:1002F000E394081719070CF0E12C5BDF90E0FF2472
:10030000F3948017910744F112C059DF90E0919562
:10031000819591090817190744F051DF90E041E0F9
:10032000801791071CF040E001C041E0E42EF12C61
:1003300013C045DF90E09195819591090817190741
:1003400044F03DDF90E041E0801791071CF040E071
:1003500001C041E0F42EE12C4E2D417002E024E07A
:10036000BE016E5F7F4FCE01049608DF4F2D4170B6
:1003700024E0BE016F5F7F4FCE010396FFDE8C81CC
:10038000882311F0C39A01C0C3988B81882311F090
:0C039000C19A77CFC19875CFF894FFCFC9
:00000001FF
